:0C000000FB2B692A6E2A702A722A742ACF
:1000920001308312A0020030031CA103A102200A36
:1000A2000319210A03190800F9308312A200000083
:1000B200A20B58285C28000049288312A1001030A6
:1000C20083169F0083122108A000200883169F0434
:1000D20083122108A0002008831685048130831230
:1000E2009F000730990083169901080083169F012B
:1000F20083129F01073099008316990185018312AB
:100102008501831685150514DF308312A0002008AF
:1001120083168505EF308312A0002008831685051B
:10012200FB308312A000200883168505FD30831260
:10013200A0002008831685050800772001305E2084
:100142000130FE200030FE2000302C2301302C2311
:100152000030A9210130A9218312A50101306222B8
:1001620004308312AC002C08A50001306222033057
:100172008312AC002C08A5000230622204308312E4
:10018200AC002C08A50002306222A1288312A40030
:10019200F330A20022089F05DC281F08EA281F1559
:1001A200EA289F15EA280C30A20022089F04EA28B8
:1001B200A001A10108002408013A0319CE28033A3C
:1001C2000319D028063A0319D2280C3A0319D42865
:1001D200D9280D30A300FB30A200A20BEE28A30BFE
:1001E200EE28F32883129F149F18F5281E08A100F9
:1001F20083161E088312A00008008312A80005308F
:10020200A5002508A7000130A702270A0319A4297F
:100212000530A5002508A90029080319572903302C
:100222002906031D18290230A5002508A90028085F
:1002320003192C29C930A500250885050130A50020
:10024200290A25290310A50DFF3E031D2329250890
:10025200A600260843293630A5002508850401306A
:10026200A500290A36290310A50DFF3E031D3429D6
:100272002508FF3AA6002608850585194529363046
:10028200A500250885043E290130C72083122108D4
:10029200AE002008AD002E08A1002D08A0004920C4
:1002A20001308312A9022908031D1029AA01AA0AF2
:1002B20006302A020318042903302A06031D652981
:1002C2000430A5002508AA00280803197929C93095
:1002D200A500250885050130A5002A0A7229031008
:1002E200A50DFF3E031D70292508A60026089029AA
:1002F2003630A500250885040130A5002A0A832985
:100302000310A50DFF3E031D81292508FF3AA60013
:1003120026088505851992293630A5002508850409
:100322008B290130C72083122108AE002008AD00BE
:100332002E08A1002D08A000492001308312A5003B
:100342002508AA075929C930A500250885050800EE
:100352008312A8000530A5002508A7000130A702D6
:10036200270A03195D2A0530A5002508A9002908D6
:100372000319092A03302906031DE8290230A500C2
:100382002508A900E829C930A500250885050130FE
:10039200A500290ACE290310A50DFF3E031DCC2975
:1003A2002508A6002608F5293630A500250885046B
:1003B2000130A500290ADF290310A50DFF3E031D08
:1003C200DD292508FF3AA60026088505F029280818
:1003D200003A0319C429013A0319D529F0298519CC
:1003E200F7293630A50025088504F0290130C720F9
:1003F20083122108AE002008AD002E08A1002D08AE
:10040200A000492001308312A9022908031DBB293B
:10041200AA01AA0A06302A020318AF2903302A06C3
:10042200031D3C2A0430A5002508AA003C2AC93035
:10043200A500250885050130A5002A0A222A0310F5
:10044200A50DFF3E031D202A2508A6002608492ADD
:100452003630A500250885040130A5002A0A332A72
:100462000310A50DFF3E031D312A2508FF3AA60001
:1004720026088505442A2808003A0319182A013A51
:100482000319292A442A85194B2A3630A500250842
:100492008504442A0130C72083122108AE002008B7
:1004A200AD002E08A1002D08A000492001308312C2
:1004B200A5002508AA070B2AC930A500250885052D
:1004C20008008312A8000530A6002608A900792A90
:1004D200C930A60026088505842A2030752A1030E6
:1004E200752A3030752A2230A60026088506842A0D
:1004F20025088400053004020318842A00308A008B
:100502000130040782000130A902290A0319D32A03
:100512000530A6002608AA002A080319842A0330F7
:100522002A06031DB12A0230A6002608AA00B12A13
:100532000130A6002A0A9F2A0310A60DFF3E031DC2
:100542009D2A2608A7002708AF2A3030A6002608D1
:1005520085060630AD2A3630A60026088506BC2A56
:100562002808013A0319992A033A0319A62A063AD6
:100572000319AC2ABC2A8519C32A3630A6002608DC
:100582008504BC2A0130C72083122108AE0020084E
:10059200AD002E08A1002D08A000492001308312D1
:1005A200AA028D2A0530A6002608A9000130A90258
:1005B200290A0319272BAB01AB0A06302B020318B9
:1005C200D72A03302B06031D032B0430A60026086E
:1005D200AB00032B0130A6002B0AF12A0310A60D53
:1005E200FF3E031DEF2A2608A7002708012B303003
:1005F200A600260885060630FF2A3630A600260801
:1006020085060E2B2808013A0319EB2A033A03192F
:10061200F82A063A0319FE2A0E2B8519152B3630B5
:10062200A600260885040E2B0130C720831221085C
:10063200AE002008AD002E08A1002D08A000492020
:1006420001308312A6002608AB07DE2AC930A600B5
:100652002608850508008312A7000530A500250895
:10066200A8000130A802280A0319912B0530A50021
:100672002508A900290803198C2B03302906031D1C
:100682006B2B0230A5002508A9006B2BC930A500F1
:10069200250885050130A500290A512B0310A50D57
:1006A200FF3E031D4F2B2508A6002608782B363067
:1006B200A500250885040130A500290A622B031034
:1006C200A50DFF3E031D602B2508FF3AA600260854
:1006D2008505732B2708003A0319472B013A0319A2
:1006E200582B732B85197A2B3630A50025088504E3
:1006F200732B0130C72083122108AE002008AD0001
:100702002E08A1002D08A000492001308312A90261
:100712002908031D3E2BC930A50025088505322B6B
:100722000530A5002508A8000130A802280A0319EF
:10073200F62BAA01AA0A06302A020318F12B03306B
:100742002A06031DCD2B0430A5002508AA00CD2BB7
:10075200C930A500250885050130A5002A0AB32B5A
:100762000310A50DFF3E031DB12B2508A600260888
:10077200DA2B3630A500250885040130A5002A0AA7
:10078200C42B0310A50DFF3E031DC22B2508FF3A03
:10079200A60026088505D52B2708003A0319A92BA0
:1007A200013A0319BA2BD52B8519DC2B3630A5005B
:1007B20025088504D52B0130C72083122108AE00FD
:1007C2002008AD002E08A1002D08A000492001300C
:1007D2008312A5002508AA0706302A02031CA02BB3
:1007E200C930A50025088505952BC930A500250827
:0C07F20085050800AD01AE0183019E28C2
:02400E009431EB
:00000001FF
