:0C000000FB2B832A882A8A2A8C2A8E2A4D
:1000F60001308312A0020030031CA103A102200AD2
:100106000319210A03190800F9308312A20000001E
:10011600A20B8A288E2800007B288312A1001030AB
:1001260083169F0083122108A000200883169F04CF
:1001360083122108A00020088316850481308312CB
:100146009F000730990083169901080083169F01C6
:1001560083129F0107309900831699018501831246
:100166008501831685150514DF308312A00020084B
:1001760083168505EF308312A000200883168505B7
:10018600FB308312A000200883168505FD308312FC
:10019600A0002008831685050800A92001309020BC
:1001A600013030210030302100303823013038232F
:1001B6000030CF210130CF218312A50101307C22EE
:1001C60004308312AC002C08A50001307C220330D9
:1001D6008312AC002C08A50002307C220430831266
:1001E600AC002C08A50002307C22D3288312A40080
:1001F600F330A20022089F050E291F081C291F158F
:100206001C299F151C290C30A20022089F041C29BA
:10021600A001A10108002408013A03190029033AA4
:1002260003190229063A031904290C3A0319062967
:100236000B290D30A300FB30A200A20B2029A30B33
:100246002029252983129F149F1827291E08A100FB
:1002560083161E088312A00008008312A80005302A
:10026600A5002508A7000130A702270A0319CA29F5
:100276000530A5002508A90029080319832903309C
:100286002906031D4A290230A5002508A9002808C9
:1002960003195F29C930A500250885050130A50089
:1002A600290A57290310A50DFF3E031D55292508C8
:1002B600A6002608850471293630A5002508850480
:1002C6000130A500290A69290310A50DFF3E031D6B
:1002D60067292508FF3AA600260885050130F9207A
:1002E60083122108AE002008AD002E08A1002D08BB
:1002F600A0007B2001308312A9022908031D422990
:10030600AA01AA0A06302A020318362903302A0649
:10031600031D91290430A5002508AA002808031901
:10032600A629C930A500250885050130A5002A0A99
:100336009E290310A50DFF3E031D9C292508A60036
:1003460026088504B8293630A5002508850401301D
:10035600A5002A0AB0290310A50DFF3E031DAE29EC
:100366002508FF3AA600260885050130F9208312E4
:100376002108AE002008AD002E08A1002D08A0001F
:100386007B2001308312A5002508AA078529C930DC
:10039600A5002508850508008312A8000530A500DC
:1003A6002508A7000130A702270A0319772A053076
:1003B600A5002508A90029080319292A03302906BA
:1003C600031D0F2A0230A5002508A9000F2AC930EF
:1003D600A500250885050130A500290AF429031082
:1003E600A50DFF3E031DF2292508A6002608850453
:1003F600172A3630A500250885040130A500290AEC
:10040600062A0310A50DFF3E031D042A2508FF3A00
:10041600A60026088505172A2808003A0319EA299E
:10042600013A0319FC29172A0130F9208312210801
:10043600AE002008AD002E08A1002D08A0007B20EC
:1004460001308312A9022908031DE129AA01AA0A7B
:1004560006302A020318D52903302A06031D5D2A11
:100466000430A5002508AA005D2AC930A500250884
:1004760085050130A5002A0A422A0310A50DFF3E74
:10048600031D402A2508A60026088504652A36305D
:10049600A500250885040130A5002A0A542A031060
:1004A600A50DFF3E031D522A2508FF3AA600260881
:1004B6008505652A2808003A0319382A013A0319DE
:1004C6004A2A652A0130F92083122108AE00200845
:1004D600AD002E08A1002D08A0007B20013083125C
:1004E600A5002508AA072B2AC930A50025088505D9
:1004F60008008312A8000530A6002608A900932A42
:10050600C930A600260885059E2A20308F2A10307D
:100516008F2A30308F2A2230A600260885069E2A8A
:10052600250884000530040203189E2A00308A003C
:100536000130040782000130A902290A0319E62ABC
:100546000530A6002608AA002A0803199E2A0330A9
:100556002A06031DCB2A0230A6002608AA00CB2AAB
:100566000130A6002A0AB92A0310A60DFF3E031D74
:10057600B72A2608A7002708C92A3030A600260869
:1005860085060630C72A3630A60026088506D62AEE
:100596002808013A0319B32A033A0319C02A063A6E
:1005A6000319C62AD62A0130F92083122108AE0083
:1005B6002008AD002E08A1002D08A0007B200130E8
:1005C6008312AA02A72A0530A6002608A900013030
:1005D600A902290A0319332BAB01AB0A06302B02F9
:1005E6000318EA2A03302B06031D162B0430A60037
:1005F6002608AB00162B0130A6002B0A042B03108D
:10060600A60DFF3E031D022B2608A7002708142B64
:100616003030A600260885060630122B3630A60096
:1006260026088506212B2808013A0319FE2A033AD3
:1006360003190B2B063A0319112B212B0130F92034
:1006460083122108AE002008AD002E08A1002D0857
:10065600A0007B2001308312A6002608AB07F12AF2
:10066600C930A6002608850508008312A7000530B4
:10067600A5002508A8000130A802280A0319972B0F
:100686000530A5002508A90029080319922B033077
:100696002906031D782B0230A5002508A900782B12
:1006A600C930A500250885050130A500290A5D2B5E
:1006B6000310A50DFF3E031D5B2B2508A60026088B
:1006C6008504802B3630A500250885040130A50059
:1006D600290A6F2B0310A50DFF3E031D6D2B250860
:1006E600FF3AA60026088505802B2708003A03193D
:1006F600532B013A0319652B802B0130F920831205
:100706002108AE002008AD002E08A1002D08A0008B
:100716007B2001308312A9022908031D4A2BC93008
:10072600A500250885053E2B0530A5002508A8004F
:100736000130A802280A0319F62BAA01AA0A0630D4
:100746002A020318F12B03302A06031DD42B04308A
:10075600A5002508AA00D42BC930A50025088505C3
:100766000130A5002A0AB92B0310A50DFF3E031D73
:10077600B72B2508A60026088504DC2B3630A500F5
:10078600250885040130A5002A0ACB2B0310A50DE8
:10079600FF3E031DC92B2508FF3AA600260885053E
:1007A600DC2B2708003A0319AF2B013A0319C12B9A
:1007B600DC2B0130F92083122108AE002008AD00A1
:1007C6002E08A1002D08A0007B2001308312A50071
:1007D6002508AA0706302A02031CA62BC930A50045
:1007E600250885059B2BC930A50025088505080029
:0807F600AD01AE018301D02822
:02400E009431EB
:00000001FF
